:020000040800F2
:10000000E007002065010008E127000847230008F9
:1000100000000000000000000000000000000000E0
:10002000000000000000000000000000492A000855
:100030000000000000000000E32700087D2A0008FF
:1000400077010008770100087701000877010008B0
:1000500077010008770100087701000877010008A0
:100060007701000877010008770100087701000890
:10007000770100087701000877010008892A000845
:10008000952A000877010008770100087701000829
:100090007701000877010008770100087701000860
:1000A00077010008E5270008F52700087701000818
:1000B0007701000877010008770100087701000840
:1000C00000F002F800F03EF80CA030C80838241800
:1000D0002D18671EA246AB4654465D46AC4201D180
:1000E00000F030F87E460F3EB6460FCC0126334274
:1000F00000D0FB1A3343A246AB461847C035000078
:10010000E0350000103A02D378C878C1FAD8520717
:1001100001D330C830C101D504680C6070470000BD
:100120000023002400250026103A01D378C1FBD813
:10013000520700D330C100D50B6070471FB51FBDFB
:1001400010B510BD00F02DF81146FFF7F7FF02F0D3
:10015000C3FC00F045F803B4FFF7F2FF03BC00F066
:100160004BF800000748804707480047FEE7FEE7D6
:10017000FEE7FEE7FEE7FEE704480549054A064BB1
:1001800070470000852A0008C1000008E001002037
:10019000E0070020E0030020E003002070477047E4
:1001A0007047754600F024F8AE4605006946534690
:1001B000C008C000854618B020B5FFF7DDFF60BC61
:1001C000B64600260027C0C5C0C5C0C5C0C5C0C54D
:1001D000C0C5C0C5C0C5403D490849008D467047EF
:1001E00010B50446C046C0462046FFF7B4FF10BD18
:1001F000004870471000002001491820ABBEFEE700
:100200002600020070470000012000035F490A68D1
:1002100082430A607047C046012000035B490A68B8
:1002200002430A607047C046F0B58FB006AF152094
:100230003870FFF7E9FF20200390C1430591534A2E
:10024000106808401060144651480125642639465C
:100250002A46334601F0CEFAFFF7DEFF07AF1C2037
:100260003870FFF7D1FF21462068039C20430860C7
:10027000474839462A46334601F0BCFAFFF7CCFF1F
:1002800008AF5B203870FFF7BFFF40490868204384
:1002900008603F4839462A4633463446049601F002
:1002A000A9FAFFF7B9FF09AF75203870FFF7ACFF67
:1002B000364A1068059908401060354839462A4684
:1002C0002E460195234601F095FAFFF7A5FF0AAFE8
:1002D000002002903870FFF797FF2C4C2068039D98
:1002E000284320602A4839463246049E334601F0AE
:1002F00081FAFFF791FF0BAF3F203870FFF784FFC3
:1003000020682843206022483946019D2A4633460A
:1003100001F070FAFFF780FF0CAF5C203870FFF738
:1003200073FF2068059908402060194839462A461D
:10033000334601F05FFAFFF76FFF164C029E039DF4
:100340000DAF3E70FFF760FF104908682843086052
:1003500001220592642304930D48394601F04AFABC
:10036000FFF75AFF0EAF3E70FFF74EFF07490868D0
:100370002843086006483946059A049B01F03AFA7A
:10038000FFF74AFF641EDBD10FB0F0BD1404004834
:100390002C01002004100000F0B58DB00491064639
:1003A0000CAF152003903870FFF72EFF20200B9024
:1003B000C2430592FC49086810400860FB480125CB
:1003C000642439462A46234601F014FAFFF724FF35
:1003D00077081B370CAE3770FFF716FFF24A10682C
:1003E0000B9908431060F14831462A46234601F034
:1003F00001FAFFF711FF0CAE3770FFF705FFEA496E
:1004000008680B9A10430860E84831462A4623469C
:10041000274601F0EFF9FFF7FFFE0CAE75200290C2
:100420003070FFF7F1FEE0490868059A1040086057
:10043000DE4831462A462C4609953B4601F0DAF95A
:10044000FFF7EAFE0CAE049D3570FFF7DDFED649DE
:1004500008680B9A10430860D448314622463C464F
:100460003B4601F0C7F9FFF7D7FE09350CAE3570F2
:10047000FFF7CAFECC4F38680B9908433860CB4869
:100480003146099D2A46234601F0B4F9FFF7C4FE20
:100490000CAE5C2001903070FFF7B6FE3868059A0C
:1004A00010403860C14831462E462A460A942346F9
:1004B00001F0A0F9FFF7B0FE0CAF002008903870F3
:1004C0000797FFF7A1FEB84908680B9D284308600D
:1004D000B648394632463746234601F08BF9FFF7D6
:1004E0009BFE0CAE089C34700696FFF78DFEAE495D
:1004F000086828430860AD4831463A460A9E3346AC
:1005000001F078F9FFF788FE079F3C70FFF77CFE4B
:10051000A549086828430860A4483946099F3A4617
:100520003446334601F066F9FFF776FE089E069DD5
:100530002E70FFF769FE9C4908680B9A104308600B
:100540009A4829463A462346254601F053F9FFF7D3
:1005500063FE079C2670FFF757FE934908680B9EC1
:1005600030430860914821463C463A462B4601F00C
:1005700041F9FFF751FE069F089D3D70FFF744FECD
:1005800089490868304308608848394622460A9EEF
:10059000334601F02FF9FFF73FFE2C46079F3D70D1
:1005A000FFF732FE804908680B9A104308607F48C5
:1005B0003946099F3A46334601F01CF9FFF72CFEF5
:1005C000069D2C70FFF720FE774908680B9A1043B0
:1005D0000860764829463C463A46334601F00AF917
:1005E000FFF71AFE079D089F2F70FFF70DFE6E495B
:1005F00008680B9A104308606C4829462246354625
:10060000334601F0F7F8FFF707FE069E3770FFF755
:10061000FBFD654908680B9F384308606348314615
:1006200022462B4601F0E6F8FFF7F6FD089C079EF0
:100630003470FFF7E9FD5C4908683D4638430860BF
:100640005A483146099A0A9F3B4601F0D3F8FFF712
:10065000E3FD069E3470FFF7D7FD534C2068284316
:10066000206052483146099D2A463B4601F0C2F8B7
:10067000FFF7D2FD079E08983070FFF7C5FD206890
:100680000B9F38432060494831462A460A9D2B4635
:1006900001F0B0F8FFF7C0FD089C069E3470FFF72C
:1006A000B3FD414908683843086040483146099E17
:1006B00032462B4601F09EF8FFF7AEFD079F3C70D7
:1006C000FFF7A2FD384A10680B99084310603748BD
:1006D000394632462B4601F08DF8FFF79DFD089C08
:1006E000069E3470FFF790FD2F4908680B9F384332
:1006F00008602E483146099A2B4601F07BF8FFF737
:100700008BFD079D2C70FFF77FFD274C2068384339
:10071000206026482946099D2A460A9B01F06AF86E
:10072000FFF77AFD08983070FFF76EFD20683843B8
:1007300020601E4831462A460A9E334601F05AF888
:10074000FFF76AFD089D079C2570FFF75DFD1649C0
:100750000868384308600F4614482146099C224621
:10076000334601F047F8FFF757FD069E3570FFF757
:100770004BFD38680B9D28433860F94831462246C6
:100780000A9F3B4601F036F8FFF746FD0CAE039892
:100790003070FFF739FDF1490868059A104008608C
:1007A000EF48314604E0C046140400482C01002004
:1007B00022463B4601F01EF8FFF72EFD0CAE5B20F3
:1007C00007903070FFF720FDE4490868284308606F
:1007D000E348314622463B4601F00CF8FFF71CFD8A
:1007E0000CAE07983070FFF70FFDDC49086828430E
:1007F00008600D46DA48314622463B4600F0FAFFD3
:10080000FFF70AFD0CAE02983070FFF7FDFC286878
:10081000059908402860D2483146224627460A9B5F
:1008200000F0E8FFFFF7F8FC0CAE049C3470FFF713
:10083000EBFC28680B9908432860C94831463A46C2
:100840000A9B00F0D7FFFFF7E7FC0C340CAE3470C6
:10085000FFF7DAFC28680B9908432860C048314646
:100860003A460A9C234600F0C5FFFFF7D5FC0CAEC4
:1008700001983070FFF7C8FC286805990840286087
:10088000B74831463D463A462646234600F0B2FF79
:10089000FFF7C2FC0CAF089C3C700797FFF7B4FC55
:1008A000AE4908680B9A10430860AD4839462A469D
:1008B000334600F09FFFFFF7AFFC0CAF3C7006978C
:1008C000FFF7A2FCA54908680B9D28430860A448CF
:1008D0003946099F3A46334600F08CFFFFF79CFCEF
:1008E000079E3470FFF790FC9C4908682843086015
:1008F0009B4831463A460A9F3B4600F07BFFFFF794
:100900008BFC069E3470FFF77FFC944908682843EF
:10091000086093483146099E32463B4600F06AFF24
:10092000FFF77AFC079F3C70FFF76EFC8B49086865
:10093000284308608A483946324635460A9F3B4676
:1009400000F058FFFFF768FC069E3470FFF75CFC70
:10095000824908680B9A10430860814831462A464C
:100960003B4600F047FFFFF757FC079E3470FFF748
:100970004BFC7A4908680B9D28430860784831464B
:10098000099E32463B4600F035FFFFF745FC069FC7
:100990003C70FFF739FC71490868284308607048CB
:1009A0003946324634460A9F3B4600F023FFFFF7A4
:1009B00033FC079E08983070FFF726FC67490868EB
:1009C000284308606648314622463B4600F012FF45
:1009D000FFF722FC069E089C3470FFF715FC5F4968
:1009E0000868284308605E483146099E32463B4607
:1009F00000F000FFFFF710FC079F3C70FFF704FCBE
:100A000056490868284308605548394632463546F5
:100A10000A9F3B4600F0EEFEFFF7FEFB069E347099
:100A2000FFF7F2FB4D4908680B9A104308604C48E9
:100A300031462A463B4600F0DDFEFFF7EDFB079E00
:100A40003470FFF7E1FB454908680B9D28430860B7
:100A500043483146099E32463B4600F0CBFEFFF745
:100A6000DBFB069F3C70FFF7CFFB3C49086828433F
:100A700008603B483946324634460A9F3B4600F000
:100A8000B9FEFFF7C9FB079E08983070FFF7BCFB63
:100A900032490868284308603148314622463B46BF
:100AA00000F0A8FEFFF7B8FB069E089C3470FFF725
:100AB000ABFB2A4908682843086029483146099E4B
:100AC00032463B4600F096FEFFF7A6FB079F3C70C0
:100AD000FFF79AFB214908682843086020483946F7
:100AE000324635460A9F3B4600F084FEFFF794FBF2
:100AF000069E3470FFF788FB184908680B9A10436C
:100B00000860174831462A463B4600F073FEFFF75F
:100B100083FB079E3470FFF777FB104908680B9D35
:100B2000284308600E483146099E32463B4600F095
:100B300061FEFFF771FB069F3C70FFF765FB0749FD
:100B40000868284308600648394632460A9B00F088
:100B500051FEFFF761FB0DB0F0BDC0461404004824
:100B60002C010020EFF3108072B6FEE7B0B501460D
:100B700020314A78022A16D1026813680E24A34352
:100B8000136013680125AB431360C26B036C2C46E2
:100B90009C40546000240C704D70416B002900D0C3
:100BA00088472046B0BD042181630120B0BD00000C
:100BB000B0B5044600F0DEF80546601C02D08A4855
:100BC0000078041900F0D6F8401BA042FAD3B0BD5B
:100BD000F0B58AB002900D68002D00D1B9E05E48F2
:100BE000029A824201D0052000E004201723DB0690
:100BF000D2180A23DA410092042A00D30090002779
:100C00003B463C4608912A460BE013433360079B62
:100C1000641C0A681046E040BF1C1B1D002800D160
:100C200097E001200646A6403240F1D00490079399
:100C300003200346BB400397DF4349680D46054048
:100C40006B1E012B0697059113D80192029A9068AA
:100C50003840089BDB68039FBB4003439360C80692
:100C6000C00FA0405368B3431646019A0343736014
:100C700006E0032D029E039F02D10546079B1EE05E
:100C8000F0680699084008998B68BB400343F360FD
:100C9000022D079B13D11C2018400F218140E3082F
:100CA0009B00F3181D6A8D43089E316981402943DA
:100CB0001962079B7068029E032505900540BD40A0
:100CC0003068069908402843306005988003800FFB
:100CD0000899049D9CD04F4908682843086008681B
:100CE000284009900C2018400F21814003232546FD
:100CF0009D43099B1A4EAB598B4300998140194380
:100D0000A9510899154EB5684868C3020FD5154317
:100D1000B560F56883020FD49543F5607568830369
:100D20000FD4954375603368C00310D56DE79543C4
:100D3000B560F5688302EFD51543F56075688303E8
:100D4000EFD5154375603368C00300D55DE7934365
:100D50005CE70AB0F0BDC046001000480004014046
:100D600008000140002A02D0182281507047282232
:100D700081507047054800687047C0461A4800789F
:100D800002490A68101808607047C046D801002060
:100D900010B58B48016810220A43026000242046E7
:100DA00000F004F800F022F8204610BD70B50446AB
:100DB0007D20C0000C4E317802F021F901468848B0
:100DC000006802F01CF900F023FE0125032C08D86E
:100DD000002806D10025E84321462A4600F028F8DD
:100DE0007460284670BDC0460000002082B00948EB
:100DF00001680122114301600168114001910199CC
:100E0000110742680A434260406808400090009819
:100E100002B0704718100240002805D41F21084076
:100E200001218140014801607047C04600E100E0B7
:100E3000002805D40322034693430A4A9A1803E084
:100E40000C220240064BD2188007C00E8901C9B29D
:100E50008140FF2383401068984308431060704727
:100E600014ED00E000E400E0F0B581B0002847D0C8
:100E70000446534A1368012003408B4208D213688A
:100E80000126B3430B431360126832408A4238D1C3
:100E9000009121688A074B4B11D54A0707D50722D5
:100EA0001202484B1B681343464A1360454B1A68AD
:100EB000F0239A43A3681343424A1360414BC90786
:100EC00022D13F49086801263040009A904205D956
:100ED0000868B04308600868C00712D1207840074E
:100EE00006D50720000219688143E06808431860AE
:100EF0001A681007810F3548022912D2044650E0C3
:100F00000126304601B0F0BD616803290DD01A1FDB
:100F100002290FD0012912D1126892030646F0D59A
:100F200011E0032926D12A4C3BE01A6B92030646B6
:100F3000E7D508E0126892010646E2D503E01268A0
:100F400092070646DDD518680326B04308431860AB
:100F5000FFF710FF07461C4D1A4B18680C21014083
:100F6000606880008142ACD0FFF704FFC01BA8423C
:100F7000F2D9C6E70321CB031249896A0F240C403A
:100F80001449095D94021A40240F134D2C5D9A42B6
:100F900002D033049A4200E00D4802F030F8444396
:100FA000084B18680006000F0C49085CC4400C4848
:100FB000046000263046FFF7F9FE304601B0F0BD70
:100FC00000200240041002408813000000127A0042
:100FD000006CDC021432000804320008F43100080E
:100FE00008000020F0B587B004460120002C00D195
:100FF00045E204902078C007F94E05940CD0716842
:101000000C200140042900D090E03068800303D513
:101010006068002800D120E12078800721D5706821
:101020000007800F0ED070680C210140082900D005
:101030009DE00320C003716801400120C00381428C
:1010400000D094E030688007059C03D5E068012853
:1010500000D002E13068F82188432169C9000143CA
:101060003160059C2078000724D42078400737D4CD
:101070002078C00600D4D3E005984069411D00D116
:10108000C2E0012800D030E1706B0421014371639C
:10109000706B012101437163FFF76CFE0546706BB5
:1010A000800700D5B4E0FFF765FE411B032002294D
:1010B000F5D9E4E1706AE169002900D181E00121FC
:1010C00008437062FFF756FE0546706A8007CCD46D
:1010D000FFF750FE401B0228F7D9032007B0F0BDF0
:1010E000012003900107F0690840029006D1F069E1
:1010F0000843F061F0690840069006980191E14FBD
:101100003868C0054AD40398040238682043386020
:10111000FFF730FE0546386820423FD1FFF72AFE30
:10112000401B6428F7D9032007B0F0BD7168014067
:10113000082908D10320C003716801400120000480
:10114000814200D161E7616801204704002900D194
:1011500017E1052900D12BE1012900D12CE101047F
:1011600032688A43326081043068884327E13068FE
:10117000059CE168002936D0012108433060FFF763
:10118000F9FD05463068800700D563E7FFF7F2FDFB
:10119000401B0228F6D9032007B0F0BD05988068EF
:1011A000002800D1B6E0052800D1C9E0012800D10F
:1011B000CAE0306A039988433062306A0421884368
:1011C000C5E0012188437062FFF7D4FD0546706ACF
:1011D000800700D449E7FFF7CDFD401B0228F6D970
:1011E000032007B0F0BD012188433060FFF7C2FD46
:1011F00005463068800700D433E7FFF7BBFD411B8D
:1012000003200229F5D93AE1706B04218843706309
:10121000706BF821884305998969C900014371639E
:101220000598007880060BD571680C2001400C29C8
:1012300039D1706B800303D50598006A01280CD161
:101240000598446A002C00D1E1E070680C2101404F
:10125000082905D1012C00D0C4E0049807B0F0BDE6
:101260000120020631680492914331604706FFF77E
:1012700081FD0546022C0BD1049C3068384200D118
:10128000DEE0FFF777FD411B03200229F5D9F6E0E8
:101290003068384200D1BAE0FFF76CFD411B0320F3
:1012A0000229F5D9EBE071680140082905D1032036
:1012B000C003716801408142BBD0706B0599096A17
:1012C000002900D1A9E001210A04104370634C04F5
:1012D000FFF750FD0546706B2042B1D1FFF74AFD84
:1012E000411B03200229F6D9C9E0706B0421014398
:1012F0007163706B012188437063FFF73BFD054606
:10130000706B80078CD5FFF735FD411B0320022948
:10131000F6D9B4E0306A039988433062306A042118
:1013200088433062584CFFF725FD0546306A800738
:101330001DD5FFF71FFD411B0320A142F6D99EE0FA
:10134000306A042101433162306A039908433062F4
:101350004D4CFFF70FFD0546306A800707D4FFF7B5
:1013600009FD401BA042F7D9032007B0F0BD029849
:101370000028059C00D07BE6F06901998843F06164
:1013800076E6010432688A43326080043168814322
:101390003160FFF7EFFC0546059C3068384200D10C
:1013A0003AE6FFF7E7FC411B03206429F5D966E024
:1013B000810432680A4332600104306808433060B7
:1013C000FFF7D8FC05463068384200D024E6FFF726
:1013D000D1FC401B6428F6D9032007B0F0BDC046FD
:1013E000001002400320C20370680240F16A059CAD
:1013F000A36A9A42049D0DD10F221140236B99429A
:1014000008D191040840E16A8842284637D100207B
:1014100007B0F0BD284607B0F0BD01210A04904393
:1014200070634C04FFF7A6FC0546706B204200D1A8
:1014300006E7FFF79FFC411B03200229F5D91EE0B8
:10144000F06A0F218843059A116B0143F1627B20FA
:10145000C00371688143D06A0843916A0143716097
:10146000306820433060FFF785FC0446306838421E
:10147000CDD1FFF77FFC011B03200229F6D907B06D
:10148000F0BDC046007000408813000070470000A7
:10149000F0B589B006687268402507922A40574225
:1014A0005741B4680121224606910A4051425141F8
:1014B00023462B409A090A433A432FD004960595B8
:1014C0008021079E31404F424F41A107069D2A4689
:1014D00000D53A46002A25D02022314602921140FA
:1014E0004F424F41012211020391603101940C429D
:1014F00000D03D46002D059F0446049830D1002BB6
:1015000021D05D21615C032910D100210891C168BF
:10151000089180680890089809B0F0BDC16C8847B0
:1015200009B0F0BD016D884709B0F0BD216E1546C8
:1015300004220A4322662A4600210891C1680891C4
:10154000816808910899019B029D1D4003991940EB
:101550000B46002D06D1002B11D1216E00291CD184
:1015600009B0F0BD216E1143216600210891816808
:1015700008910168B94301600899002BEDD0216EF4
:10158000134608220A4322661A4600210891816800
:1015900008910899216E0029E2D041681346E022A3
:1015A000914341605D216354B1071DD0416803221E
:1015B00091434160A06D002808D00E494163FFF7B8
:1015C000D5FA002802D0206E38432066606D0028CE
:1015D000C6D008494163FFF7C9FA0028C0D0206E81
:1015E0003843206609B0F0BD2046FFF74FFF09B031
:1015F000F0BDC04605280008F0B585B000280CD025
:10160000044605465C3541208600606A002807D004
:10161000002020612046143007E0012005B0F0BD15
:101620006068B04203D020461C30002101600027D2
:10163000A7626878002804D100202870204600F0B6
:1016400057F80220049501906870206801684022D4
:10165000914303900160E168EC4A012591422A46DA
:1016600000D33A461203ED020D430F2738020290D1
:10167000854201D00025A5626568A7683540212311
:101680009B023B405B192569019805401D43606939
:10169000012318402843FC36A7693E400643E06911
:1016A000382505403543206A802606402E435803DE
:1016B000A56A05403543039E3560380C0425054076
:1016C000029801400A432A43606A102101401143F5
:1016D000606B082202400A437260D802F1698143BC
:1016E000F1610020206604994B7005B0F0BDC04642
:1016F000F0B589B0002408940794069405940494E6
:101700000068374988421FD03649884265D1012098
:101710000103354A53680B43536053680B400393EE
:10172000039940041168014311601168014003915D
:1017300003200790069402200590F020049003985F
:101740000920C50619263BE00127B903264882680F
:101750000A43826082680A4003920399F90402688E
:101760000A43026002680A4003920399B9040268BE
:101770000A4302600068084003900398089703201A
:1017800007900546019006940226059608200490CD
:10179000164804A90291FFF71BFA05200890079547
:1017A00006940596B8020490114D28460299FFF759
:1017B0000FFA0198079006940596380304901A26AC
:1017C000089404A92846FFF703FA3046214622462A
:1017D000FFF72EFB3046FFF71FFB09B0F0BDC046F8
:1017E000003800400030014014100240000800485A
:1017F00000040048F0B587B0054604464434207E16
:10180000012802D1022007B0F0BD164604910593CD
:10181000012007462076FFF7ADFA0390607E01288D
:101820005DD10499002900D1E4E0002E384657D05C
:1018300003200190607600202866EE87AE87A963BA
:1018400028642080E8642865029060802868012769
:10185000F903AA688A4208D10168402291430160D5
:101860000121890302680A4302600168490603D422
:10187000016840220A43026069684A424A41731E75
:10188000594259411143EA68604B9A4241D30029B9
:1018900007D0049A1188C160901CA863E88F401E8D
:1018A000E887E88F0028039E74D00598401C0BD170
:1018B0001FE0A96B0A88C260881CA863E88F401EDD
:1018C000E887E88F002865D0286881688907F0D408
:1018D000FFF750FA801B05998842F2D342E00220BC
:1018E0000021217607B0F0BDFFF744FAE88F002809
:1018F00050D0286881688907F6D5A96B0A88C2602C
:10190000881CA863E88F401EE887E88F0028F0D184
:1019100040E0002908D0049909780173A86B401CA5
:10192000A863E88F401EE887E88F0028039E31D027
:101930000598401C0CD11DE0A96B09780173A86BB8
:10194000401CA863E88F401EE887E88F002821D05C
:10195000286881688907EFD4FFF70CFA801B059986
:101960008842F2D30198029049E0FFF703FAE88F2A
:1019700000280FD0286881688907F6D5A96B0978F7
:101980000173A86B401CA863E88F401EE887E88FAE
:101990000028EFD1049703200390C1022846059F39
:1019A0003A46334600F038FF00280FD12846394622
:1019B000324600F0E1FF002808D103984102284692
:1019C0003A46334600F028FF002804D0286E202134
:1019D000084328662966A868002807D100200690D9
:1019E0002868C1680691806806900698286E0028CD
:1019F000049F04D038460021217607B0F0BD6776F9
:101A000002980021217607B0F0BDC0460107000012
:101A1000401E010E01D0012070470749074A50605F
:101A2000074803680B40032189075918016000200B
:101A30009060072111607047FFFFFF0010E000E099
:101A400020ED00E07047704710B53C22825C012A0F
:101A500001D1022010BD02463C32022353700068BF
:101A600043687024A3430C681C4383684460984C0B
:101A7000A04207DC0124A407A04209D0974CA04251
:101A800006D00AE0934CA04202D0934CA04204D16D
:101A90008024A3434968194381600020107001210C
:101AA000517010BD70B5002829D0044605463C355C
:101AB0006878002804D100202870204600F06AF8D9
:101AC0000220687021680E6801208307994205D0C2
:101AD000814A914202D0814A914219D170229643A3
:101AE000A26832437A4EB14216DD254B994208DC9A
:101AF000794B994218D0774B994215D03EE001209E
:101B000070BD204B99420FD01F4B99420CD035E04D
:101B100032466F4EB142E8DC994205D06F4B994294
:101B200002D01A4B994229D103231B029A432369FD
:101B3000134322463E328026B343A6691E430E60FD
:101B4000E368CB6263688B62114BCB180A26F341C2
:101B5000072B06D806469E40E1231E4201D063694A
:101B60000B6348611072107050709070D0701071DB
:101B700050719071D0716870002070BD1346D8E725
:101B8000FF43014000480140004401400020004064
:101B900000D4FEBFB0B586B00168504881422BD05A
:101BA00001208207914239D101901D490A68024300
:101BB0000A600A6802400092009A400408390A68E4
:101BC00002430A6009680140009102200590002448
:101BD00004940394029000980920C00601A9FEF71E
:101BE000F7FF0F25284621462246FFF721F9284610
:101BF000FFF712F906B0B0BD09480168022211438F
:101C000001600068104001900198102400212046D6
:101C10000A46FFF70DF92046FFF7FEF806B0B0BD03
:101C20001C1002403D21415C01290FD101463D318C
:101C300002220A700068F249884209DC0121890702
:101C400088420BD0F149884208D00EE0012070474D
:101C5000EC49884202D0EC49884206D181680722CB
:101C60000A40062A01D100207047016801220A4378
:101C7000026000207047C0463D21415C012912D11D
:101C800001463D3102220A700068C26801210A4300
:101C9000C260DB4A904208DC8A0790420BD0DB4AE4
:101CA000904208D00EE001207047D64A904202D000
:101CB000D54A904206D1826807231340062B01D1F2
:101CC0000020704702680A43026000207047C04647
:101CD000FF2B014000400140002C01400004004067
:101CE000F0B53C22825C012A01D10220F0BD0246FF
:101CF0003C3202235370504E3346773B0468A06851
:101D00001840A0600D6800234F2D1EDC1F2D35DD0F
:101D1000202D37D0302D35D0402D00D086E0206AE0
:101D2000256A0126B5432562A569F026B543CE682C
:101D300036012E43A6610A25A84349680143216262
:101D4000A06847210143302069E06F2D26DD012086
:101D50004703BD4240D00003854218461AD0702D7B
:101D600064D1A06830404D688E68C9682E4309026E
:101D700031430143A160A068772139E0002D01D0F3
:101D8000102D53D1A06870218843054307202843B4
:101D9000A0601846137001215170F0BD502D29D05C
:101DA000602D43D11020C043256A054025620F25D0
:101DB0002D03A669AE43CD682D033543266AA56180
:101DC000A025AE434968090131432162A168672516
:101DD0000D430540A56024E0A56835404E688F6836
:101DE000C9683743090239432943A1608003A168C8
:101DF000014315E0206A256A0126B5432562A569DD
:101E0000F026B543CE6836012E43A6610A25A843C5
:101E1000496801432162A068572101432020814382
:101E2000A1601846137001215170F0BD012013709C
:101E300001215170F0BDC046FF00FFFF0D48017841
:101E400000290ED00178002912D00B490968816061
:101E5000816842884368C91A12048918C160002148
:101E600003E00549096841600121002242800170B8
:101E70007047C0467000002034000040F0B582B0CA
:101E80003C23C35C012B02D1022002B0F0BD03460B
:101E90003C330224E241032A1AD8C0467A4412791C
:101EA00052009744011A3E5F0268146A012084437D
:101EB00014629669CC68019430C90095156AC64FC2
:101EC0000839BA4274DC8707BA4277D0C54F73E04D
:101ED00001200021197002B0F0BD0068026A1024D0
:101EE000A24302624A681202444C1440CA681203B8
:101EF00092B21219F32424028569A5431543026A9C
:101F000085610C682401A0252C40AA4312190262A5
:101F1000032292028469944384618968090218301B
:101F200063E0012212020068046A944304624A6872
:101F3000F024A243CC682401E4B2A218C469F325BA
:101F4000AC431443026AC461052464020D682D0287
:101F50002540A24352190262C2690C24A243C26105
:101F6000896823E0012212030068046A9443046232
:101F70004A681202214C1440CA68120392B2121924
:101F8000F3242402C569A5431543026AC5610524EB
:101F900064030D682D032540A243521902620322F7
:101FA0009202C4699443C461896809021C301CE030
:101FB0008A4FBA4202D08A4FBA4202D103208643E6
:101FC0000098064310461830F027BE43019F3F019A
:101FD000FFB2F61996610A263440B5432C191462F3
:101FE00094690C25AC439461896802680A430260D5
:101FF00000200021197002B0F0BDC046000FFFFFA5
:10200000FF2B014000400140002C01400004004033
:1020100070B5002829D0044605463C35687800286C
:1020200004D100202870204600F06AF80220687071
:1020300021680E6801208307994205D0684A9142C1
:1020400002D0684A914219D170229643A268324365
:10205000614EB14216DD254B994208DC604B994236
:1020600018D05E4B994215D03EE0012070BD204B48
:1020700099420FD01F4B99420CD035E03246564E54
:10208000B142E8DC994205D0564B994202D01A4B36
:10209000994229D103231B029A4323691343224601
:1020A0003E328026B343A6691E430E60E368CB62CE
:1020B00063688B62114BCB180A26F341072B06D8B5
:1020C00006469E40E1231E4201D063690B634861CE
:1020D0001072107050709070D070107150719071BB
:1020E000D0716870002070BD1346D8E7FF430140EF
:1020F00000480140004401400020004000D4FEBFE1
:1021000070470000B0B503463E33002906D00829C9
:1021100010D0042911D15C1D5A1C10E01C7801223A
:1021200054401D79554025432C0651D102221A7086
:102130001A7119E09C1D9A1C01E0DC1DDA1C15784F
:1021400001225540247854402C43240640D10222D9
:10215000082904D0042905D15A705A7104E09A70F4
:102160009A7101E0DA70DA7102230A46DA41032A31
:102170001BD89200174B9A580068C3681343C3607A
:102180001F221140012213468B40016A99430162CC
:10219000016A194301621049884208DC91078842AC
:1021A0000BD01049884208D00EE00120B0BD0B4989
:1021B000884202D00A49884206D1816807230B4031
:1021C000062B01D10020B0BD01681143016000223F
:1021D0001046B0BD24320008FF2B014000400140F2
:1021E000002C014000040040B0B504468020C543E7
:1021F00020680169890717D5C168890714D5294660
:102200007E310161012121778069800703D020465A
:10221000FFF714FE05E0204600F08AF8204600F0A3
:1022200088F80020207720680169490718D5C1681F
:10223000490715D529467C31016102212177806942
:102240008005800F03D02046FFF7F8FD05E020460B
:1022500000F06EF8204600F06CF80020207720682F
:102260000169090717D5C168090714D529467831CE
:10227000016104212177C069800703D02046FFF760
:10228000DDFD05E0204600F053F8204600F051F84F
:102290000020207720680169C90618D5C168C906E1
:1022A00015D529467031016108212177C069800563
:1022B000800F03D02046FFF7C1FD05E0204600F067
:1022C00037F8204600F035F80020207720680169B3
:1022D000C90709D0C168C90706D029467F31016105
:1022E000204600F027F820680169090607D5C16873
:1022F000090604D505612046FFF7A4FB20680169A3
:10230000490609D5C168490606D52946403101610B
:10231000204600F017F820680169890607D5C168D2
:10232000890604D5603505612046FFF78CFBB0BDFA
:102330007047704702484188491C41807047C04639
:10234000700000207047FEE770B510480822002199
:102350000723016241628162C362016342632022FA
:102360000B4C0125AD041B024126B60050C0016094
:1023700043608160C160056142610838FFF73CF944
:10238000002801D0FEF7EEFB70BDC046C80000205B
:1023900000300140F0B581B01148002107220162F0
:1023A00041628162C2620163416320210091012385
:1023B00002249E041202DF034125AD000949A2C098
:1023C000026044608360C660009901610C38FFF7C9
:1023D00013F9002801D0FEF7C5FB01B0F0BDC046DF
:1023E0002C01002000380040F0B587B0FB4E30686B
:1023F0000825A8433060012403942046FEF7D8FB4B
:102400003068284330602046FEF7D2FB06AFAE208E
:102410003870FDF7F9FE20200490C543306828404D
:1024200005953060F64864243946039E32462346BB
:10243000FFF7E0F9FDF7F0FE06AFB3203870FDF7C7
:10244000E3FEE649086828400860ED483946324610
:1024500025462346FFF7CEF9FDF7DEFE06AF9120B5
:102460003870FDF7D1FEDD490868049E30430860EE
:10247000E3483946039C22462B46FFF7BBF9FDF79C
:10248000CBFE06AFCA203870FDF7BEFED34A1068F7
:10249000059908401060DA48394622462B46FFF776
:1024A000A9F9FDF7B9FE06AF3F203870FDF7ACFE85
:1024B000CA49086830430860D148394622462B464D
:1024C000FFF798F9FDF7A8FE06AFA2203870FDF7D8
:1024D0009BFEC24A1068059908401060C8483946FA
:1024E00022462B46FFF786F9FDF796FE06AF002041
:1024F0003870FDF789FEB949086830430860C04864
:10250000394622462B462E46FFF774F9FDF784FE26
:1025100006AFAB203870FDF777FEB0490868059D1F
:1025200028400860B6483946224633460296FFF7EF
:1025300061F9FDF771FE06AF3C70FDF765FEA74936
:102540000868049A10430860AD483946224633466D
:10255000FFF750F9FDF760FE06AFA020019038703C
:10256000FDF752FE9D49086828400860A448394696
:1025700022462646029D2B46FFF73CF9FDF74CFE0E
:1025800006AF16203870FDF73FFE94490868049C9A
:10259000204308609A48394632462B462E46FFF7BC
:1025A00029F9FDF739FE06AF11203870FDF72CFE32
:1025B0008A4D28682043286091483946039C22466A
:1025C0003346FFF717F9FDF727FE06AFC72038702F
:1025D000FDF71AFE286805990840286088483946A2
:1025E00022463346FFF706F9FDF716FE06AF0F2029
:1025F0003870FDF709FE2868049908432860804870
:10260000394622463346FFF7F5F8FDF705FE06AFDB
:10261000C1203870FDF7F8FD28680599084028604A
:102620007748394622463346FFF7E4F8FDF7F4FDD4
:1026300006AF9F203870FDF7E7FD2868049908432E
:1026400028606F48394622463346FFF7D3F8FDF736
:10265000E3FD06AFB1203870FDF7D6FD2868059977
:10266000084028606648394622463346FFF7C2F8DC
:10267000FDF7D2FD06AFF2203870FDF7C5FD2868E2
:10268000049908432860FC48394622463346FFF740
:10269000B1F8FDF7C1FD06AFBB203870FDF7B4FD02
:1026A0002868059908402860F34839462246334691
:1026B000FFF7A0F8FDF7B0FD06AF1F203870FDF75B
:1026C000A3FD2868049908432860EB483946224650
:1026D00034463346FFF78EF8FDF79EFD06AFB42073
:1026E0003870FDF791FD2868059908402860F94881
:1026F0003946039E32462346FFF77CF8FDF78CFDF2
:1027000006AF01983870FDF77FFD2868049C2043D0
:102710002860F04839463246029E3346FFF76AF891
:10272000FDF77AFD06AFFD203870FDF76DFD2868D6
:1027300020432860E7483946039C22463346FFF78A
:1027400059F8FDF769FD06AFBE203870FDF75CFD56
:102750002868059908402860DE48394622463346F5
:102760003446FFF747F8FDF757FD06AF04203870F1
:10277000FDF74AFD28680499084328602E46D5488D
:102780003946039D2A462346FFF734F8FDF744FDFA
:1027900006AFA6203870FDF737FD31463068059E3C
:1027A00030400860CB4839462A462346FFF722F8D6
:1027B000FDF732FD06AFAF203870FDF725FDC449A7
:1027C000086830400860C34839462A462346FFF768
:1027D00011F8FDF721FD07B0F0BDC0461404004814
:1027E000FEE7704780B50248FEF752FE80BDC04646
:1027F000C800002080B5B748FEF74AFE80BDC0463D
:102800002C01002080B5406A462100224252C28736
:10281000FEF73CFE80BD0000F0B587B0049314467F
:102820000E46054605A800270770FEF7A3FA04998F
:10283000081A02940419FEF79DFA04908148006872
:1028400023214143080D6043069003952D68A86835
:10285000304233D0019703214F020298401C30D000
:10286000BE4200911CD104E00398006880683842A1
:1028700045D0287B05A908700598FEF77BFA0499D6
:10288000401AA0423ED206980699491E0691002899
:10289000EAD10446E8E703980068806830422ED009
:1028A000FEF768FA0499401AA0422BD206980699BE
:1028B000491E06910028EED10446ECE7384607B0E1
:1028C000F0BDBE4247D1287B05A908700598A868CD
:1028D000384214D0287B05A908700598A8683842AA
:1028E0000DD0287B05A908700598A868384206D045
:1028F000287B05A908700598A8683842E3D101989B
:1029000007B0F0BD039C20684168E022914341601C
:102910004121890062688A420BD1A1680122D30358
:10292000994202D09202914203D101684022914320
:10293000016001214A03A36A5C34934205D1036814
:1029400093430360036813430360002020706170A9
:10295000009807B0F0BD0199A868304208D0A86877
:10296000304205D0A868304202D0A8683042F3D186
:10297000084607B0F0BDC046F0B583B015460F4617
:102980000446FEF7F7F9281AC519FEF7F3F90646CB
:102990002C4800684001000D68430290226891684D
:1029A0000020090622D5791C1DD0019027465C37EE
:1029B00003E020688068000641D5FEF7DBF9801B44
:1029C000A84215D202980299491E02910028F0D11E
:1029D0000546EEE79168090608D59168090605D510
:1029E0009168090602D591680906F3D403B0F0BDD9
:1029F00020684168E022914341604121890062687A
:102A00008A420BD1A1680122D303994202D09202DB
:102A1000914203D1016840229143016001214A03A0
:102A2000A36A934205D10368934303600368134389
:102A30000360002038707970032003B0F0BD019866
:102A400003B0F0BD080000207047000010B582B050
:102A500001AC5C202070FDF7D7FB1D4801682022E7
:102A6000914301601B48012264232146FEF7C2FE08
:102A7000FDF7D2FB02B010BD2C01002080B5FEF79F
:102A80007DF980BD7047000080B5B248FFF7ACFB10
:102A900080BDC04680B50248FFF7A6FB80BDC0469A
:102AA0008000002010B582B001AC2070FDF7ACFBB7
:102AB000EB48016820220A430260EA4801226423AD
:102AC0002146FEF797FEFDF7A7FB02B010BDC046FA
:102AD000140400482C01002096B002A800240470C1
:102AE00001A80470FEF754F90B940A940994089411
:102AF00007940694059401200F900521C9040E91B6
:102B00009149491C0D9102250C950490039003A84E
:102B1000FEF768FA002803D0EFF3108072B6FEE7E4
:102B20001394129411950720109010A8012529469E
:102B3000FEF79AF9002803D0EFF3108072B6FEE793
:102B40000794A905814802680A43026002680A40A6
:102B500010921099E90402680A43026002680A4070
:102B600010921099690402680A43026002680A40E0
:102B700010921099A90402680A4302600068084094
:102B800010901098724E2827304639462246FEF79C
:102B9000E9F8069405940495039703A93046FEF7D7
:102BA00017F86C4884612F26A90742C00460664963
:102BB0004160846006940594049415941494083834
:102BC000FEF770FF002803D0EFF3108072B6FEE727
:102BD0002F0303975F4803A9FFF782F8002803D06B
:102BE000EFF3108072B6FEE75A48FFF711FA00289B
:102BF00003D0EFF3108072B6FEE7564814A9FEF733
:102C000023FF002803D0EFF3108072B6FEE7139481
:102C10001294119510944F4810A92246FFF72EF9EF
:102C2000002803D0EFF3108072B6FEE74A4D8020F3
:102C3000A8624A4828616E61AC614348E8612C6231
:102C40000694059404941194109410352846FEF7C8
:102C500029FF002803D0EFF3108072B6FEE7039738
:102C600003A92846FFF73CF8002803D0EFF31080B3
:102C700072B6FEE710A92846FEF7E6FE002803D04C
:102C8000EFF3108072B6FEE7FFF784FBFFF75CFB03
:102C90002846FEF7C7FF2F4D2846FEF7EDFF2846D2
:102CA0002146FFF72FFAFFF79FFBFDF7BDFA2C4DEA
:102CB000E7B20026384631462A4600F077F90C2163
:102CC00038462A4600F072F9641C802CF0D1F4B228
:102CD0000C2120462A4600F069F9182120462A4690
:102CE00000F064F9761C802EF1D10026F4B2182190
:102CF00020462A4600F05AF9242120462A4600F0B0
:102D000055F9761C802EF1D10026F4B224212046FC
:102D10002A4600F04BF9302120462A4600F046F9B9
:102D2000761C802EF1D100242746FEB23021304699
:102D30002A4600F03BF93C2130462A4600F036F99D
:102D40007F1C802FF1D1B3E7FFFF00001410024079
:102D500000040048900100207000002000040040A2
:102D6000B8360008F0B58DB00691039007AE152077
:102D70003070FDF749FA20200590C243049238498B
:102D80000868104008600F46364801246425314623
:102D900022462B46FEF72EFDFDF73EFA039840082B
:102DA0001C3008AE3070FDF72FFA39463868059FA1
:102DB000384308602B48314622462B46FEF71AFD61
:102DC000FDF72AFA09AE06983070FDF71DFA24497E
:102DD000086838430860234F38463146224602943B
:102DE0002B460195FEF706FDFDF716FA0AAE752093
:102DF0003070FDF709FA1A490868049A1040086013
:102E00003846314622462B46FEF7F4FCFDF704FA1D
:102E10000BAE06983070FDF7F7F911490868059C6C
:102E2000204308600F483146029D2A46019F3B46D9
:102E3000FEF7E0FCFDF7F0F90CAE3F203070FDF737
:102E4000E3F90749086820430860064831462A46E6
:102E50003B46FEF7CFFCFDF7DFF90DB0F0BDC046F5
:102E6000140400482C010020F0B589B00791203AE5
:102E7000D2B20C2105914A434B4989180491811D16
:102E80000391011D02910690801C0190002409E02D
:102E9000FF263046FFF706FEF0B2FFF703FE641C84
:102EA0000C2C7FD00798011906980891FFF75AFF5C
:102EB0000498055DAE09FFF7C9FD032E04D3FF2773
:102EC0003846FFF7EFFD0FE0C0262E40802E04D1DC
:102ED000FF20FFF7E7FD002706E000273846FFF751
:102EE000E1FD402E00D1FF43F8B2FFF7DBFD019872
:102EF0000899FFF737FF30262E40FFF7A7FD302E49
:102F000004D1FF273846FFF7CDFD0DE0202E04D178
:102F1000FF20FFF7C7FD002706E000273846FFF730
:102F2000C1FD102E00D1FF43F8B2FFF7BBFD0298A0
:102F30000899FFF717FF2E4605980640FFF786FD14
:102F40000C2E04D1FF273846FFF7ACFD0DE0082E0C
:102F500004D1FF20FFF7A6FD002706E00027384632
:102F6000FFF7A0FD042E00D1FF43F8B2FFF79AFD52
:102F700003980899FFF7F6FE03200540FFF766FD6A
:102F8000032D85D0022D04D1FF20FFF78BFD0026F5
:102F900082E700263046FFF785FD012D00D07BE754
:102FA000F64379E709B0F0BD44320008F0B583B0CC
:102FB000029101900092107800281ED00027009CFA
:102FC000029D019E0BE008362278E9B2FFF74CFF24
:102FD0007F1CF8B200990C18085C00280DD00198ED
:102FE0000299FDF7D9F9F0B27828ECD90C35E8B29E
:102FF000342802D808260020E6E703B0F0BD4308D5
:103000008B421AD3002203098B4279D3030A8B42E5
:103010005ED3030B8B4242D3030C8B4227D30902AE
:10302000FF2212BA030C8B4202D31212090203D000
:10303000030B8B4233D31AE0D3E0411A8041401C8A
:10304000704703460B4371D443088B42F5D30022EB
:1030500003098B4254D3030A8B4239D3030B8B42AF
:103060001DD3030C8B4202D394466EE0090AC30BB6
:103070008B4201D3CB03C01A5241830B8B4201D345
:103080008B03C01A5241430B8B4201D34B03C01A2E
:103090005241030B8B4201D30B03C01A5241C30AA6
:1030A0008B4201D3CB02C01A5241830A8B4201D317
:1030B0008B02C01A5241430A8B4201D34B02C01A01
:1030C0005241030A8B4201D30B02C01A5241CDD2A6
:1030D000C3098B4201D3CB01C01A524183098B42F1
:1030E00001D38B01C01A524143098B4201D34B01DA
:1030F000C01A524103098B4201D30B01C01A52413D
:10310000C3088B4201D3CB00C01A524183088B42C3
:1031100001D38B00C01A524143088B4201D34B00AC
:10312000C01A5241411A524110007047CA0F00D0D4
:103130004942031000D34042534000229C460309F9
:103140008B422DD3030A8B4212D38901FC2212BA7F
:10315000030A8B420CD3890192118B4208D3890157
:1031600092118B4204D3890137D0921100E0890972
:10317000C3098B4201D3CB01C01A524183098B4250
:1031800001D38B01C01A524143098B4201D34B0139
:10319000C01A524103098B4201D30B01C01A52419C
:1031A000C3088B4201D3CB00C01A524183088B4223
:1031B00001D38B00C01A5241D9D243088B4201D3AC
:1031C0004B00C01A5241411A00D2014652411046EA
:1031D00063465B1000D34042704763465B1000D3E8
:1031E000404201B50021004201D0C9430846C04613
:1031F000C04602BD00000000000000000102030400
:103200000607080902030405060708090A0B0C0D46
:103210000E0F10100102030405060708090A0B0C23
:103220000D0E0F1002000000040000000800000056
:1032300010000000FDFFFFFFFBFFFFFFF7FFFFFF98
:10324000EFFFFFFF00000000000000000000000092
:1032500000183C3C3C18180018180000363636148C
:103260000000000000000000006C6C6CFE6C6CFE46
:103270006C6C000018187CC6C0783C06C67C181818
:1032800000000062660C183066C6000000386C381A
:103290003876F6CECC7600000C0C0C18000000003E
:1032A00000000000000C183030303030180C0000E6
:1032B0000030180C0C0C0C0C183000000000006CD6
:1032C00038FE386C0000000000000018187E181846
:1032D00000000000000000000000000C0C0C1800B2
:1032E0000000000000FE00000000000000000000E0
:1032F0000000000018180000000002060C183060E2
:10330000C0800000007CC6CEDEF6E6C6C67C0000AB
:103310000018781818181818187E0000007CC6C607
:103320000C183060C6FE0000007CC606063C06068F
:10333000C67C0000000C1C3C6CCCFE0C0C0C00008D
:1033400000FEC0C0C0FC0606C67C0000007CC6C0F3
:10335000C0FCC6C6C67C000000FEC60C183030306B
:1033600030300000007CC6C6C67CC6C6C67C0000E5
:10337000007CC6C6C67E0606C67C00000000000CA7
:103380000C00000C0C0000000000000C0C00000CF5
:103390000C0C1800000C183060C06030180C0000D5
:1033A00000000000FE00FE00000000000060301879
:1033B0000C060C1830600000007CC6C60C18180003
:1033C00018180000007CC6C6DEDEDEDCC07E000011
:1033D00000386CC6C6C6FEC6C6C6000000FC6666DF
:1033E000667C666666FC0000003C66C0C0C0C0C06B
:1033F000663C000000F86C66666666666CF8000065
:1034000000FE6660607C606066FE000000FE666034
:10341000607C606060F00000007CC6C6C0C0CEC6A4
:10342000C67C000000C6C6C6C6FEC6C6C6C600002C
:10343000003C181818181818183C0000003C181800
:10344000181818D8D870000000C6CCD8F0F0D8CC26
:10345000C6C6000000F060606060606266FE00004A
:1034600000C6C6EEFED6D6D6C6C6000000C6C6E664
:10347000E6F6DECECEC60000007CC6C6C6C6C6C610
:10348000C67C000000FC6666667C606060F0000040
:10349000007CC6C6C6C6C6C6D67C060000FC6666EC
:1034A000667C786C66E60000007CC6C060380C065E
:1034B000C67C0000007E5A1818181818183C000026
:1034C00000C6C6C6C6C6C6C6C67C000000C6C6C6FE
:1034D000C6C6C66C3810000000C6C6D6D6D6FEEEEC
:1034E000C6C6000000C6C66C3838386CC6C60000B8
:1034F00000666666663C1818183C000000FEC68C24
:10350000183060C2C6FE0000007C606060606060D1
:10351000607C0000000080C06030180C06020000D3
:10352000007C0C0C0C0C0C0C0C7C000010386CC6D5
:10353000000000000000000000000000000000008B
:10354000000000FF1818180C000000000000000028
:1035500000000000780C7CCCDC76000000E06060AD
:103560007C66666666FC0000000000007CC6C0C089
:10357000C67C0000001C0C0C7CCCCCCCCC7E0000AB
:10358000000000007CC6FEC0C67C0000001C363077
:1035900030FC3030307800000000000076CEC6C627
:1035A0007E06C67C00E060606C76666666E60000BB
:1035B0000018180038181818183C0000000C0C00EF
:1035C0001C0C0C0C0CCCCC7800E06060666C786C49
:1035D00066E600000038181818181818183C000083
:1035E000000000006CFED6D6C6C600000000000039
:1035F000DC66666666660000000000007CC6C6C623
:10360000C67C000000000000DC6666667C6060F03E
:103610000000000076CCCCCC7C0C0C1E000000001E
:10362000DC66606060F00000000000007CC6701C7A
:10363000C67C000000303030FC303030361C0000DA
:1036400000000000CCCCCCCCCC7600000000000008
:10365000C6C6C66C3810000000000000C6C6D6D62C
:10366000FE6C000000000000C66C38386CC600001C
:1036700000000000C6C6C6CE7606C67C000000006C
:10368000FE8C183062FE0000000E18181870181812
:10369000180E000000181818180018181818000044
:1036A00000701818180E1818187000000076DC004A
:1036B00000000000000000003A000000E0360008B2
:1036C000000000201000000004010008F03600088F
:1036D00010000020D00700002001000800000000BA
:1036E000010000000400000000127A000000000049
:04000005080000C12E
:00000001FF
